:060000000A128A110C280F
:10000800FE00030EF0000A08F1000A168A11632A9E
:100018000A128A110F288313EB30FD001130FE00FD
:10002800D130FF00C83084000A168A1137210A121D
:100038008A110A128A1500200A128A11EE000A1281
:100048008A1501200A128A11EF00A0308400C830F6
:100058000A168A11C8200A128A11543084006E3098
:100068000A168A11C8200A128A11FA01FB018301B3
:100078000A128A15002983120313A6000830F60015
:100088008430F7008030F8000A168A1133230A12E8
:100098008A11831203135E185228532868285808B7
:1000A800C03EF6005F300A128A11EF220A128A1146
:1000B800831203135808C13EF6005F300A128A11F2
:1000C800EF220A128A117328DA30F6000030F7009E
:1000D800C030F8000A168A1133230A128A113E30FA
:1000E800831203132606031D7A287B2864295808DF
:1000F8005904031D80288128C8280A30F200831675
:1001080003135A080A168A1120210A128A11831623
:1001180003135B07F03E83120313A9000130A907FC
:1001280018302902031C99289A289B28A9010A300B
:10013800F2000030F3002908A200A3012208F4000D
:100148002308F5000A168A11B9250A128A117208BD
:10015800303E83160313DA000A30F2000030F30051
:10016800831203132908A200A3012208F40023081C
:10017800F5000A168A11A5240A128A117208303E5F
:1001880083160313DB00AC2A033058065904031DF9
:10019800CE28CF2816290A30F200831603135D08EB
:1001A8000A168A1120210A128A11831603135E0780
:1001B800F03E83120313A9000130A9073C3029023D
:1001C800031CE728E828E928A9010A30F2000030D2
:1001D800F3002908A200A3012208F4002308F5006F
:1001E8000A168A11B9250A128A117208303E831636
:1001F8000313DD000A30F2000030F300831203130A
:100208002908A200A3012208F4002308F5000A1611
:100218008A11A5240A128A117208303E8316031324
:10022800DE00AC2A063058065904031D1C291D2976
:10023800AC2A0A30F2008316031360080A168A11E2
:1002480020210A128A11831603136107F03E8312D4
:100258000313A9000130A9073C302902031C3529E2
:1002680036293729A9010A30F2000030F30029089D
:10027800A200A3012208F4002308F5000A168A1137
:10028800B9250A128A117208303E83160313E0005A
:100298000A30F2000030F300831203132908A20089
:1002A800A3012208F4002308F5000A168A11A524E0
:1002B8000A128A117208303E83160313E100AC2A31
:1002C8003D302606031D69296A29842958085904DE
:1002D800031D6F29702975290330D8000030D90013
:1002E800AC2A033058065904031D7B297C2981292F
:1002F8000630D8000030D900AC2AD801D901AC2A80
:1003080037302606031D89298A299F2A8316031355
:100318005A0883120313A200A3012208F20023083B
:10032800F3000A30F4000030F5000A168A1118228A
:100338000A128A11831603135B08720783120313C8
:10034800A4000030031801307307A5002408F03E0C
:10035800A70025080318013EFD3EA8000A30F20058
:100368000030F3002808F5002708F4000A168A115F
:10037800A5240A128A11720883120313A2007308B3
:10038800A3000A30F2000030F3002808F50027081F
:10039800F4000A168A11B9250A128A117208831202
:1003A8000313A40003300310A40DFF3E031DD72937
:1003B8000310240D2204A00002300A168A11F42129
:1003C8000A128A11831603135D0883120313A2000D
:1003D800A3012208F2002308F3000A30F4000030D9
:1003E800F5000A168A1118220A128A1183160313B5
:1003F8005E08720783120313A4000030031801304B
:100408007307A5002408F03EA70025080318013E3D
:10041800FD3EA8000A30F2000030F3002808F5007D
:100428002708F4000A168A11A5240A128A117208EC
:1004380083120313A2007308A3000A30F2000030ED
:10044800F3002808F5002708F4000A168A11B925D0
:100458000A128A11720883120313A40003300310CE
:10046800A40DFF3E031D332A0310240D2204A0000F
:1004780001300A168A11F4210A128A11831603130D
:10048800600883120313A200A3012208F2002308C4
:10049800F3000A30F4000030F5000A168A11182219
:1004A8000A128A1183160313610872078312031351
:1004B800A4000030031801307307A5002408F03E9B
:1004C800A70025080318013EFD3EA8000A30F200E7
:1004D8000030F3002808F5002708F4000A168A11EE
:1004E800A5240A128A11720883120313A200730842
:1004F800A3000A30F2000030F3002808F5002708AE
:10050800F4000A168A11B9250A128A117208831290
:100518000313A40003300310A40DFF3E031D8F2A0C
:100528000310240D2204A00000300A168A11F421B9
:100538000A128A11AC2A2F302606031DA42AA52ADE
:10054800AC2A0230EC000A168A115A210A128A11C2
:100558000800F701F801720873040319B42AB52AD0
:10056800EA2A0130F600C12A01300310F20DF30D1A
:10057800FF3E031DB92A0130F607F31FC42AC52A16
:10058800B82A01300310F70DF80DFF3E031DC62AE7
:1005980073087502031DD22A72087402031CD52A37
:1005A800D62ADD2A7208F4027308031CF503F50243
:1005B800771401300310F30CF20CFF3E031DDE2A02
:1005C8000130F602031DE92AEA2AC52A7808F30051
:1005D8007708F2000800F700F20176080A168A1177
:1005E800F5230A128A11F201F20A77080A168A110B
:1005F800F5230A128A110800FF1B0A2B83137F18A0
:1006080083170008840A0319FF0A08007F087F3946
:100618008A000408840A0319FF0A820056346934E0
:100628006534773420344C346F34673420342034C4
:10063800203420342034203420342034003443340F
:100648006C3465346134723420344C346F3467341C
:1006580020342034203420342034203420342034F2
:1006680044346F3477346E346C346F3461346434AA
:1006780020344C346F346734203420342034203410
:1006880000345334653474342034543469346D344C
:10069800653420342034203420342034203420346D
:1006A800203400344334683461346E34673465343C
:1006B8002034503461347334733477346F34723483
:1006C8006434203400346934733420345734723439
:1006D8006F346E346734203420342034203420348E
:1006E8002034203420342034203420342034203462
:1006F8002034003452346534203445346E34743434
:10070800653472346534643420345034613473345D
:1007180073342034203420342034203420342034DE
:10072800003452346534203445346E3474346534BE
:10073800723420344E346534773420345034613484
:1007480073347334203420342034003445346E3408
:1007580074346534723420344E346534773420343C
:10076800503461347334733477346F34723464348E
:100778002034203400344334683461346E346734B0
:100788006534643420342034203420342034203438
:100798002034203420342034203400345034613460
:1007A8007334733477346F34723464342034693476
:1007B800733420342034203420342034203420343E
:1007C800003423342034543449344D3445342034EF
:1007D80020342034203445345634203453345034B3
:1007E8000A340D34003420342034203420342034AA
:1007F8002034203420342034203420342034203451
:100808002034203420340034483448343A344D34C9
:100818004D343A3453345334203420342034203483
:10082800203420342034203400344C346F3467347E
:1008380073342034613472346534203420342034E5
:100848002034203420342034203400342034203420
:100858004E346F3420344534763465346E34743411
:100868007334203420342034203420340034553478
:10087800533445345234203442344C344F344334A6
:100888004B3445344434213420342034203400346B
:1008980045346E34743465347234203450346134E1
:1008A8007334733477346F347234643420342034BE
:1008B800003441347434743465346D3470347434B1
:1008C80073342034723465346D342E34203430342B
:1008D8002034003441347434743465346D347034E5
:1008E800743473342034723465346D342E342034C7
:1008F80031342034003441347434743465346D3404
:100908007034743473342034723465346D342E3456
:10091800203432342034003443346C346534613448
:10092800723469346E3467342E342E342E342E34B7
:100938002E342E342E342E34003444346F3477342D
:100948006E346C346F346134643469346E346734B3
:100958002E342E342E342E342E3400342034543495
:1009680049344D3445342034203420342034203464
:10097800453456342034203453345034003423342E
:100988002034543449344D34453420342034203410
:100998002034203445345634203453345034003411
:1009A80043346F34723472346534633474342034AD
:1009B800503461347334733477346F34723464343C
:1009C800003455344134523454342034543465346A
:1009D80073347434203443346F34643465340A34E3
:1009E8000D340034203473346534633420342034B7
:1009F800203420342034203420342034203420344F
:100A08000034573472346F346E34673420345034C1
:100A180061347334733477346F347234643400342B
:100A28005734613469347434203400344334203406
:100A380000344734313400344734323400344734D6
:100A48003334003447343434003447344E340034BB
:100A58004F344E3400344734523400348312031375
:100A6800AB000430650203183A2D3B2DE32DAA3064
:100A7800F6008330F7008030F8000A168A11332315
:100A88000A128A11F730F6008330F7008312031335
:100A98006508C13EF8000A168A1133230A128A1122
:100AA800831203135E18592D5A2D642D6508C03E14
:100AB800F6005F300A128A11EF220A128A116D2D90
:100AC8006508C03EF60020300A128A11EF220A1289
:100AD8008A113E30831203132B06031D742D752DC6
:100AE800AB2D6508B83E8400313083138000A30124
:100AF800A401912D831203132308C03EF6002A3067
:100B08000A128A11EF220A128A1101308312031382
:100B1800A3070318A40A0030A4076508013EA00033
:100B2800003003180130A1002408803AA2002108EF
:100B3800803A2202031DA22D20082302031CA52DA2
:100B4800A62D7E2D013083120313E5074D2F3D306E
:100B58002B06031DB02DB12D4D2F6508B83E84001E
:100B6800303083138000A501A601CD2D8312031315
:100B78002508C03EF6002A300A128A11EF220A120E
:100B88008A11013083120313A5070318A60A00303F
:100B9800A6076508013EA000003003180130A10037
:100BA8002608803AA2002108803A2202031DDE2D81
:100BB80020082502031CE12DE22DBA2DA62D0430B4
:100BC80064020318E82DE92D912E9530F600833044
:100BD800F7008030F8000A168A1133230A128A11A6
:100BE800F730F6008330F700831203136408C13E20
:100BF800F8000A168A1133230A128A118312031382
:100C08005E18072E082E122E6408C03EF6005F30CC
:100C18000A128A11EF220A128A111B2E6408C03E9A
:100C2800F60020300A128A11EF220A128A113E3089
:100C3800831203132B06031D222E232E592E64081C
:100C4800B33E8400313083138000A701A8013F2EF2
:100C5800831203132708C03EF6002A300A128A11AD
:100C6800EF220A128A11013083120313A70703180F
:100C7800A80A0030A8076408013EA0000030031845
:100C88000130A1002808803AA2002108803A2202F7
:100C9800031D502E20082702031C532E542E2C2EE1
:100CA800013083120313E4074D2F3D302B06031D3B
:100CB8005E2E5F2E4D2F6408B33E840030308313C0
:100CC8008000A901AA017B2E831203132908C03EC4
:100CD800F6002A300A128A11EF220A128A1101300C
:100CE80083120313A9070318AA0A0030AA07640885
:100CF800013EA000003003180130A1002A08803A04
:100D0800A2002108803A2202031D8C2E2008290205
:100D1800031C8F2E902E682E542E83160313BC01AD
:100D2800B701B830F200B330F3000A168A118B22EB
:100D38000A128A1172087304031DA32EA42E082F09
:100D4800D230F6008330F7008030F8000A168A1196
:100D580033230A128A11BF30F6008330F700C030FF
:100D6800F8000A168A1133230A128A11E330F200B6
:100D7800B830F3000A168A110D210A128A110030C0
:100D880083120313D7000030D6000030D50000309E
:100D9800D4005708031DE02E03305602031DDC2E35
:100DA8000D305502031DDC2E40305402031DDC2E8D
:100DB800031CDF2EE02EE12EF22E013083120313E6
:100DC800D407003003180130D5070030031801306C
:100DD800D607003003180130D707CD2E0030831214
:100DE8000313D7000030D6000030D5000030D400FF
:100DF8000230EC000A168A115A210A128A1183124B
:100E08000313E501E4014D2F7E30F6008330F7002F
:100E18008030F8000A168A1133230A128A116730C3
:100E2800F6008330F700C030F8000A168A11332321
:100E38000A128A11003083120313D7000030D6003B
:100E48000030D5000030D4005708031D3B2F033075
:100E58005602031D372F0D305502031D372F403022
:100E68005402031D372F031C3A2F3B2F3C2FF22E21
:100E7800013083120313D407003003180130D5075B
:100E8800003003180130D607003003180130D707A7
:100E9800282F0800F701F8010230770678040319B3
:100EA800562F572F6D2F053077067804031D5D2FB9
:100EB8005E2F5F2F6D2F7708DA3E840083130008BA
:100EC800F3007A080A168A1162230A128A1101307D
:100ED800FA070130F7070318F80A0030F80778080E
:100EE800803AFF0080307F02031D7C2F0830770294
:100EF800031C7F2F802F502F831203136A08A00032
:100F08002007C83E840083130008A100840A000853
:100F1800A2002208FF00210884000A128A11002377
:100F28000A128A11F3007A080A168A1162230A1231
:100F38008A110130FA07013083120313A0006A08EE
:100F4800A1002107C83E840083130008A200840A78
:100F58000008A30020082207A5002308A4000318FE
:100F6800A40AA01BA4032408A6002608FF0025083D
:100F780084000A128A1100230A128A11F3007A08DF
:100F88000A168A1162230A128A110130FA07831697
:100F980003134208F3007A080A168A1162230A1218
:100FA8008A110130FA07831603134308F3007A08FD
:100FB8000A168A1162230A128A110130FA0764306C
:100FC8007A02031CE82FE92FEA2FFA010A307B0284
:100FD8000318EF2FF02FF22F0130FB0708008316BC
:100FE80003131419F82FF92FF32F11081F39031DB4
:100FF800FE2FFF2FF32F0800053401348316031347
:101008008801091189100A168A111C260A128A15E4
:101018000800003083120313A4000030A30000303E
:10102800A2000030A1007508740473047204031947
:101038001E281F286A280130A5002D280130A0008D
:101048000310F20DF30DF40DF50DA00B242801305B
:10105800A507F51F3028312822280130A0000310E9
:10106800A10DA20DA30DA40DA00B332875087902BC
:10107800031D482874087802031D4828730877025E
:10108800031D482872087602031C4B284C285B284D
:101098007208F6027308031C730FF7027408031C26
:1010A800740FF8027508031C750FF902211401303A
:1010B8000310F50CF40CF30CF20CFF3E031D5C2836
:1010C8000130A502031D69286A2831282408F50083
:1010D8002308F4002208F3002108F2000800F900B0
:1010E800831203136608031D7A287B288A287B0845
:1010F80003197F28802886285A080A168A11772714
:101108000A128A15013083120313E6003D3079066E
:10111800031D8F289028B3287B0803199428952845
:10112800D8287B08FF3EA000FF3003180030A1003C
:1011380021085B02031DA22820085A020318A528CB
:10114800A628D8280130DA070318DB0A0030DB07A5
:101158005A080A168A1177270A128A15D8283E30A3
:101168007906031DB828B928CC285A085B04031946
:10117800BE28BF28D8280130DA020030031CDB0360
:10118800DB025A080A168A1177270A128A15D82804
:101198002F307906031DD128D228D828DA01DB019F
:1011A800E6010230EC00FF28C330F6008430F70077
:1011B8008030F8000A168A1133230A128A157B0830
:1011C800031DE728E828F4282A30F6008430F700C1
:1011D800C030F8000A168A1133230A128A15FF282C
:1011E800A230F6000030F700C030F8000A168A1165
:1011F80033230A128A1508000A168A1163240A1270
:101208008A1501300A168A11B3220A128A15831622
:101218000313EC0037306C06031D13291429252904
:10122800831203136B08031D1A291B292529013072
:10123800EC00E201E301E001E101ED018316031393
:10124800BD0183126C08031D2A292B293529EB01BE
:10125800831603136C080A128A152C230A128A159E
:1012680005296C03031D39293A29432983160313D9
:101278006C080A128A15EA250A128A15052902300D
:101288006C06031D482949295629831603136C083F
:101298000A128A1557220A128A150130831203137B
:1012A800EB00052903306C06031D5B295C296529C1
:1012B800831603136C080A128A1573200A128A15FA
:1012C800052904306C06031D6A296B2971290A1641
:1012D8008A1158250A128A15052905306C06031D3E
:1012E800762977298029831603136C080A168A1130
:1012F800F5260A128A15052906306C06031D85296C
:1013080086298F29831603136C080A128A113F2035
:101318000A128A15052907306C06031D9429952998
:101328000529831603136C080A128A1132250A123A
:101338008A1505290A128A110C2883120313A8009A
:1013480028080319A829A929BD29A31FAC29AD2953
:10135800BD292009AA002109AB002209AC002309F4
:10136800AD00AA0A0319AB0A0319AC0A0319AD0A9E
:10137800C5292308AD002208AC002108AB002008CD
:10138800AA002308220421042004031DCC29CD2906
:10139800D6290030A3000030A2000030A1000030A0
:1013A800A000562A9630A900E4290130A907013087
:1013B8000310AD0CAC0CAB0CAA0CFF3E031DDC29D2
:1013C800FE302D05031DE929EA29D929042A01300F
:1013D800A9070130AA07003003180130AB07003015
:1013E80003180130AC07003003180130AD07013095
:1013F8000310AD0CAC0CAB0CAA0CFF3E031DFC2972
:10140800FF302D05031D092A0A2AEB29162A013067
:10141800A9020130A4000310AA0DAB0DAC0DAD0D4F
:10142800A40B0F2AAC1B192A1A2A202A02302902D7
:1014380003181F2A202A0B2A2918232A242A2C2A8F
:10144800FF30AA05FF30AB057F30AC05FF30AD0596
:101458000310A90C2908A400A501A601A7011830AA
:101468000310A40DA50DA60DA70DFF3E031D342ADC
:101478002408AA042508AB042608AC042708AD04F0
:1014880028080319482A492A4E2AA31F4C2A4D2AFC
:101498004E2AAD172D08A3002C08A2002B08A10086
:1014A8002A08A0000800F9003D307906031D5D2ACE
:1014B8005E2A702A831203136708031D642A652AAB
:1014C800682A0130E700702A0330680203186D2A81
:1014D8006E2A702A0130E8073E307906031D752A06
:1014E800762A862A831203136703031D7C2A7D2A22
:1014F8007F2AE701862A68080319832A842A862A0C
:101508000130E80283120313680EF0396807123EAF
:10151800F60083300318013EF7008230F8000A16FF
:101528008A1133230A128A15831203136808013EAD
:10153800A000003003180130A1002108803AFF0004
:1015480080307F02031DAA2A053020020318AD2A25
:10155800AE2AC02A83120313680EF0396807233EA7
:10156800F60083300318013EF700C230F8000A166F
:101578008A1133230A128A15831203136708031D7D
:10158800C62AC72AD82A8030F6002A300A128A11B9
:10159800EF220A128A15C030F60020300A128A118A
:1015A800EF220A128A15E82A8030F60020300A1243
:1015B8008A11EF220A128A15C030F6002A300A1260
:1015C8008A11EF220A128A1537307906031DED2A8F
:1015D800EE2A1B2BFE2A0330EC001B2B0430EC00F8
:1015E8001B2B0530EC001B2B0630EC001B2B0730A7
:1015F800EC001B2B8312031368086707A000A101E6
:10160800A10D2108003A03190A2B1B2B2008003AC8
:101618000319EF2A013A0319F22A033A0319F52AA2
:10162800013A0319F82A073A0319FB2A1B2B2F3012
:101638007906031D202B212B2B2B83120313EC017E
:10164800E801E7010A168A115A210A128A150800C8
:1016580083160313EB00B230F6008430F7008030B5
:10166800F8000A168A1133230A128A15C530F600C3
:101678000A168A1190210A128A15C530F9000A162D
:101688008A11FC240A128A153E30831603136B064E
:10169800031D4F2B502B682B0730831203136A0648
:1016A800031D572B582B5A2B0130EA0006306A02CB
:1016B80003185F2B602B622B0130EA070A128A118C
:1016C8004E270A128A158C2B3D306B06031D6D2B95
:1016D8006E2B812B0730831203136A06031D752BAB
:1016E800762B782B0130EA0002306A02031C7D2B2E
:1016F8007E2B622B0130EA02622B3B306B06031D06
:10170800862B872B8C2B073083120313EA00622B5E
:10171800831203136A08D0005007C83E840083135D
:101728000008F600840A00088403F700CA30F800AD
:101738000A168A1133230A128A1500300A168A11EA
:1017480071210A128A15720883120313D0007308D4
:10175800D100D201D3015308A3005208A2005108B6
:10176800A1005008A00000300A128A15A1210A120F
:101778008A15831203132308B5002208B400210830
:10178800B3002008B2004130B1002330B000AE30C1
:10179800AF001430AE000A128A1520240A128A15E6
:1017A800831203133108CB003008CA002F08C90080
:1017B8002E08C8000A168A117F260A128A15831273
:1017C80003134808E9000A30F2000030F300690802
:1017D800D000D1015008F4005108F5000A168A110A
:1017E800B9250A128A157208303E83160313C200FF
:1017F8000A30F2000030F300831203136908D000A6
:10180800D1015008F4005108F5000A168A11A524E0
:101818000A128A157208303E83160313C300C401E6
:10182800C230F6000030F700CE30F8000A168A11F0
:1018380033230A128A150800831203133508BF00E0
:101848008030BF053508B6003607C600B41F2D2CFA
:101858002E2C2F2C461446080319332C342C442CD8
:10186800460A031D382C392C412C0030B5000030B5
:10187800B4000030B3000030B200B417B5014C2CEE
:101888000030B5000030B4000030B3000030B200C2
:1018980031088039BF063108B6003607C700B01FC7
:1018A800562C572C582C4714470803195C2C5D2CD0
:1018B8006D2C470A031D612C622C6A2C0030B10084
:1018C8000030B0000030AF000030AE00B017B101FA
:1018D800752C0030B1000030B0000030AF0000308F
:1018E800AE00310830042F042E04031D7C2C7D2CFF
:1018F800942C0030B5000030B4000030B300003044
:10190800B2008030B4047F30B5043F08B504350810
:10191800B1003408B0003308AF003208AE00E92D3A
:101928004608031D982C992CA22C0030B1000030D9
:10193800B0000030AF000030AE00E92D4608B60018
:10194800B7013708B90047083602B800031CB903C5
:1019580038087F3EC00039080318013E003EC10028
:101968003508BE003408BD003308BC003208BB008F
:101978000030B5000030B4000030B3000030B200D1
:101988000030C5000030C4000030C3000030C20081
:10199800C701162D47080319D22CD32CF32C01307C
:1019A800B6000310BB0DBC0DBD0DBE0DB60BD52C7E
:1019B8000130B6000310B20DB30DB40DB50DB60B62
:1019C800DE2CC51FE82CE92CEA2C32140130B600B5
:1019D8000310C20DC30DC40DC50DB60BEC2C310898
:1019E8003E02031D012D30083D02031D012D2F0865
:1019F8003C02031D012D2E083B02031C042D052D5E
:101A0800142D45172E08BB022F08031C2F0FBC02EC
:101A18003008031C300FBD023108031C310FBE0211
:101A28000130C7071A304702031C1B2D1C2DCE2C72
:101A38003E083D043C043B040319232D242D432D6B
:101A48004214432D0130B6000310B20DB30DB40D8E
:101A5800B50DB60B282DC51F322D332D342D32145C
:101A68000130B6000310C20DC30DC40DC50DB60B71
:101A7800362DFF30C0070318C10AFF30C107B41F55
:101A8800462D472D262DC701C51F4B2D4C2D682DE2
:101A9800FF304205B600FF304305B700FF3044056C
:101AA800B8007F304505B9003908380437043604D2
:101AB80003195F2D602D632D0130C700682D321C7E
:101AC800662D672D682D602D470803196C2D6D2D27
:101AD8009E2D0130B207003003180130B3070030E3
:101AE80003180130B407003003180130B507351C5E
:101AF8007E2D7F2D9E2D3208B6003308B70034089E
:101B0800B8003508B9000130BA00390DB90CB80C65
:101B1800B70CB60CBA0B892D3908B5003808B400D3
:101B28003708B3003608B2000130C0070318C10AED
:101B38000030C1074108803AFF0080307F02031D52
:101B4800A72DFF304002031CAA2DAB2DB92DFF3065
:101B580083120313C0000030C1000030B50000300C
:101B6800B4000030B3000030B20083120313410800
:101B7800803AFF0080307F02031DC42D01304002EF
:101B88000318C72DC82DD52D83120313C001C10119
:101B98000030B5000030B4000030B3000030B200AF
:101BA800BF01831203134008C600461CDC2DDD2D3F
:101BB800DF2DB417E12D7F30B4054608B6000310B9
:101BC800360CB5003F08B5048B2C080083120313AC
:101BD800A200003063020430031962020318F52DD5
:101BE800F62D962E4C30F6008430F7008030F80041
:101BF8000A168A1133230A128A15F730F600833041
:101C0800F700831203136208C13EF8000A168A110E
:101C180033230A128A15831203135E18142E152E05
:101C28001F2E6208C03EF6005F300A128A11EF22AA
:101C38000A128A15282E6208C03EF60020300A12C1
:101C48008A11EF220A128A153E30831203132206E4
:101C5800031D2F2E302E632E6208BD3E84003130C6
:101C680083138000A701A8014A2E2708C03EF6006A
:101C78002A300A128A11EF220A128A1501308312B9
:101C88000313A7070318A80A0030A8076208013E33
:101C9800A00063080318013E003EA10021082802A5
:101CA800031D582E20082702031C5B2E5C2E392E9C
:101CB8000130E2070318E30A0030E307FF2F3D3045
:101CC8002206031D682E692EFF2F6208BD3E840080
:101CD800303083138000A901AA01832E2908C03E51
:101CE800F6002A300A128A11EF220A128A150130E8
:101CF80083120313A9070318AA0A0030AA07620867
:101D0800013EA00063080318013E003EA10021081F
:101D18002A02031D912E20082902031C942E952EB9
:101D2800722E5C2E0130E0070318E10A0030E1074B
:101D380083160313C101E330F200BD30F3000A1625
:101D48008A118B220A128A1572087304031DAD2E9C
:101D5800AE2ECE2ED430F6008430F7008030F80056
:101D68000A168A1133230A128A15F730F6008330CF
:101D7800F700C030F8000A168A1133230A128A15B0
:101D8800023083120313EC000A168A115A210A1230
:101D98008A15FF2F003083120313610203300319E1
:101DA80060020318D82ED92E5C2F0530F600853036
:101DB800F7008030F8000A168A1133230A128A15B0
:101DC800092F7F30F6008430F700C030F8000A167B
:101DD8008A1133230A128A151B2F6E30F6008430BD
:101DE800F700C030F8000A168A1133230A128A1540
:101DF8001B2F5D30F6008430F700C030F8000A165B
:101E08008A1133230A128A151B2F831203136108C0
:101E1800003A0319102F1B2F6008013A0319E52E09
:101E2800033A0319F12E013A0319FD2E1B2F003036
:101E380083120313D7000030D6000030D5000030DD
:101E4800D4005708031D382F03305602031D342FC2
:101E58000D305502031D342F40305402031D342F1A
:101E6800031C372F382F392F4A2F013083120313C1
:101E7800D407003003180130D507003003180130AB
:101E8800D607003003180130D707252F00308312FA
:101E98000313D7000030D6000030D5000030D4003E
:101EA800E201E3010A168A115A210A128A15762FCD
:101EB80000306102033003196002031C642F652F90
:101EC800762F6D08031D692F6A2F762F0130ED00DC
:101ED8005F0883160313A100831203135E08831699
:101EE8000313A000831203136D0803197C2F7D2FA1
:101EF800FF2F831603132008831203135E02A30027
:101F0800831603132108031C210A831203135F029B
:101F1800A400003024021E30031923020318952F51
:101F2800962FF32F1D30A00023082002A5002409B6
:101F38000318013EA6000A30F2000030F30026081C
:101F4800F5002508F4000A128A11AD220A128A1532
:101F58007208303E83160313E8000A30F20000309E
:101F6800F300831203132608F5002508F4000A1667
:101F78008A112B240A128A157208303E831603131D
:101F8800E900EA013B30F6008430F7008030F800C1
:101F98000A168A1133230A128A151430F60085307E
:101FA800F700C030F8000A168A1133230A128A157E
:101FB800E830F6000030F700C530F8000A168A113C
:101FC80033230A128A15F630F6008430F700C7303A
:101FD800F8000A168A1133230A128A15FF2FED0119
:101FE800E001E101E201E301EC01EA010A168A11CC
:081FF8005A210A128A150800A3
:102176008316031306083F388600080083160313E8
:102186009F17831203131F14080064008001840A3A
:102196000406031900340406C9280A128A11F32713
:1021A6000A168A1183160313111408000A128A11DB
:1021B600F3270A168A1183160313111508008316CE
:1021C60003138112811506308312031381008B16C7
:1021D60008000A168A11D9200A168A110A168A11C7
:1021E600D0200A168A110800F2000A128A11F32773
:1021F6000A168A1172088312031393000800F2006C
:1022060072088312031399000C1E0A290B29072949
:102216000C1208007208F4007308F30A8400831392
:102226000008FF007408F40A84007F088000000894
:10223600031D1E291F290F290800F400F301741C31
:102246002529262928297208F3070310F20D031001
:10225600F40C7408031D302931292229730808005B
:102266007E088A007F0882000A168A1133210A1620
:102276008A118000840A04087D0603190034FF0AC7
:102286000319FE0A372900300A168A11DD220A16BA
:102296008A1183120313A2007F30A2052208A00030
:1022A60000300A168A11F4210A168A110800F7303E
:1022B600F6008330F7008030F8000A168A113323BF
:1022C6000A168A11F730F6008330F700C030F8009E
:1022D6000A168A1133230A168A110800F5007508B2
:1022E600F40003300310F40DFF3E031D752983121D
:1022F60003131F08C73974049F001F151F1984296B
:10230600852981291E08F700831603131E08F60087
:102316007708F3007608F200080076088400023099
:102326000A168A11DD220A168A1183138000760A9C
:10233600840001300A168A11DD220A168A118313D7
:1023460080007608023E840000300A168A11DD22DB
:102356000A168A11831380000800F2000A128A11F5
:10236600F3270A168A118316031391150A128A1186
:10237600F3270A168A11831203131308F300720354
:10238600031DC629C729CB29831603139116CE2907
:102396008316031391121116730808002C34853422
:1023A600293485341D3485342034853423348534EA
:1023B600263485342F3485341A3485340334003476
:1023C600313432343A34303434343A3432343234C8
:1023D6000034313431343034303400343034303435
:1023E600003483120313A1000A168A11D0200A169C
:1023F6008A11D0300A168A11F7200A168A1183121A
:10240600031321080A168A11F7200A168A11831265
:10241600031320080A168A11F7200A168A110A16CB
:102426008A11D9200A168A110800F601F701721CD2
:102436001D2A1E2A242A7408F6070318F70A7508A7
:10244600F70701300310F40DF50DFF3E031D252A95
:1024560001300310F30CF20CFF3E031D2C2A720808
:102466007304031D372A382A1A2A7708F3007608D8
:10247600F2000800522A7408FF00730884000A124A
:102486008A1100230A168A110A168A1102210A16CF
:102496008A110130F3070318F40A0030F4077408B0
:1024A60083120313FF00730884000A128A110023A3
:1024B6000A168A11003A031D612A622A3E2A08007A
:1024C6000B1D662A672A842A831203130108083E15
:1024D60081000130DC070318DD0A0030DD072030FB
:1024E6005C064E3003195D06031D7A2A7B2A832A71
:1024F600DC01DD010130DE070318DF0A0030DF07EB
:102506000B1171088A00700E8300FE0E7E0E090004
:10251600902A0130F2070130F30773088400831311
:102526000008F4007208840000087406031D9C2A43
:102536009D2AA42A720884000008031DA32AA42A3F
:102546008C2A730884000008F400720884000008CE
:10255600F50074087502F200F301031CF30308008A
:10256600F3007308031DB82AB92ABE2A831203137F
:1025760006083F39DC2A3F30831203130605F200B2
:102586003F3072060319C82AC92AD02A6F080319D0
:10259600CD2ACE2AD02AEF01B92A3F300605F2000D
:1025A6003F307206031DD82AD92ADB2A0130EF00F4
:1025B6003F300800F4000A168A11D0200A168A1144
:1025C600D0300A168A11F7200A168A1174080A16DC
:1025D6008A11F7200A168A110A168A11EC200A16A1
:1025E6008A11D1300A168A11F7200A168A1100308C
:1025F6000A168A11B0210A168A11F5000A168A11DE
:10260600D9200A168A1175080800F4000A168A11DC
:10261600D0200A168A11A0300A168A11F7200A1647
:102626008A1174080A168A11F7200A168A110A16E0
:102636008A11EC200A168A11A1300A168A11F7208F
:102646000A168A1100300A168A11B0210A168A1152
:10265600F5000A168A11D9200A168A11750808008B
:10266600F20178080A168A11F5230A168A11512BE7
:10267600F201F20A7708FF00760884000A128A112E
:1026860000230A168A110A168A11F5230A168A11D8
:102696000130F6070318F70A0030F70777088312A8
:1026A6000313FF00760884000A128A1100230A1613
:1026B6008A11003A031D602B612B3B2B0800F400A6
:1026C6000A168A11D0200A168A11A0300A168A1113
:1026D600F7200A168A1174080A168A11F7200A16B4
:1026E6008A1173080A168A11F7200A168A110A1621
:1026F6008A11D9200A168A11B830F5000B30F60077
:102706000130F5020030031CF603F602750A031DBC
:10271600902B760A031D902B912B832B0800831296
:102726000313981718162608AA002708AB002808CE
:10273600AC002908AD0004300310AA0DAB0DAC0D9A
:10274600AD0DFF3E031D9F2B2D08F5002C08F40050
:102756002B08F3002A08F2000130F9003130F800A6
:102766002D30F7000030F6000A128A150D200A16E1
:102776008A117208FF3E8316031399008C1608000F
:102786008312031394152608AA002708AB0028080D
:10279600AC002908AD0002300310AA0DAB0DAC0D3C
:1027A600AD0DFF3E031DCF2B2D08F5002C08F400C0
:1027B6002B08F3002A08F2000130F9003130F80046
:1027C6002D30F7000030F6000A128A150D200A1681
:1027D6008A117208FF3E83160313930083120313B4
:1027E60094160800F5007218F92BFD2B83120313BB
:1027F6000915002C8312031309117508F039880096
:102806008914A630F300F30B062C00008312031381
:10281600891075080F39F30003300310F30DFF3EDE
:10282600031D102C0310730D88008914A630F300C5
:10283600F30B1B2C00008312031389101B30F400CA
:102846009E30F300F30B252CF40B252C000008001A
:10285600720873040319302C312C5E2C0130F600FB
:102866003D2C01300310F20DF30DFF3E031D352CF8
:102876000130F607F31F402C412C342C73087502E7
:10288600031D472C72087402031C4A2C4B2C512C36
:102896007208F4027308031CF503F50201300310F5
:1028A600F30CF20CFF3E031D522C0130F602031D01
:1028B6005D2C5E2C412C7508F3007408F2000800AC
:1028C6000A168A11C1200A168A110A128A150220CE
:1028D6000A168A110A168A11BB200A168A110030B6
:1028E60083120313A9000130A8008630A700A03088
:1028F600A6000A168A11C3230A168A110A168A1115
:1029060046210A168A110A168A11E2200A168A1127
:10291600003083120313A9000030A8002530A70059
:102926008030A6000A168A1192230A168A11E5300B
:10293600F3008430F4000A168A113D220A168A1121
:102946008B170800F701F51FA92CAA2CB12CF40946
:10295600F509F40A0319F50A0130F700F31FB42C40
:10296600B52CBA2CF209F309F20A0319F30A720814
:1029760073040319BF2CC02CED2C0130F600CC2CAF
:1029860001300310F20DF30DFF3E031DC42C013080
:10299600F607F31FCF2CD02CC32C73087502031D2A
:1029A600D62C72087402031CD92CDA2CE02C72087F
:1029B600F4027308031CF503F50201300310F30C4F
:1029C600F20CFF3E031DE12C0130F602031DEC2C38
:1029D600ED2CD02C77080319F12CF22CF72CF409E6
:1029E600F509F40A0319F50A7508F3007408F200EC
:1029F6000800790884008313000883120313A000DB
:102A060004300310A00CFF3E031D042D20080339DB
:102A1600303E83160313DA007908840000080F3964
:102A2600303EDB003A30DC00790A8400000883126D
:102A36000313A00004300310A00CFF3E031D1E2D3F
:102A460020080739303E83160313DD00790A840017
:102A560000080F39303EDE003A30DF007908023ECA
:102A66008400000883120313A00004300310A00C96
:102A7600FF3E031D392D20080739303E8316031308
:102A8600E0007908023E840000080F39303EE1007C
:102A9600E201DA30F6000030F700C030F8000A161E
:102AA6008A1133230A168A110800FB01FA018312E0
:102AB6000313DA01DB01E60183160313A2011930C1
:102AC600F6008430F7008030F8000A168A113323A6
:102AD6000A168A119030F6008430F700C030F800EC
:102AE6000A168A1133230A168A1100308312031339
:102AF600D7000030D6000030D5000030D40057088B
:102B0600031D952D03305602031D912D0D305502E0
:102B1600031D912D40305402031D912D031C942D4D
:102B2600952D962DA72D013083120313D40700305F
:102B360003180130D507003003180130D6070030DE
:102B460003180130D707822D003083120313D700F4
:102B56000030D6000030D5000030D4000230EC0042
:102B66000A168A115A210A168A110800F701F31F5C
:102B7600BD2DBE2DC52DF209F309F20A0319F30A7C
:102B86000130F700F51FC82DC92DD02DF409F50920
:102B9600F40A0319F50A0130F706F801F90172087B
:102BA60073040319D72DD82D0D2E0130F600E42D10
:102BB60001300310F20DF30DFF3E031DDC2D013035
:102BC600F607F31FE72DE82DDB2D01300310F80D76
:102BD600F90DFF3E031DE92D73087502031DF52D42
:102BE60072087402031CF82DF92D002E7208F402E7
:102BF6007308031CF503F502781401300310F30C77
:102C0600F20CFF3E031D012E0130F602031D0C2EB1
:102C16000D2EE82D77080319112E122E172EF809FE
:102C2600F909F80A0319F90A7908F3007808F20095
:102C36000800C330F700CD30F600F60B202EF70B58
:102C4600202EF20133300A168A11F5230A168A114C
:102C56001B30F7009E30F600F60B2F2EF70B2F2EAB
:102C66000000F20133300A168A11F5230A168A117A
:102C7600A630F600F60B3D2E0000F20133300A16A0
:102C86008A11F5230A168A11482E492E0000F201F0
:102C960002300A168A11F5230A168A11A630F600A2
:102CA600F60B532E0000F20128300A168A11F5237E
:102CB6000A168A11A630F600F60B5F2E0000F20106
:102CC60001300A168A11F5230A168A110430F70014
:102CD6003D30F600F60B6D2EF70B6D2E722EF201BF
:102CE6000C300A168A11F5230A168A11A630F60048
:102CF600F60B7B2E000008000310831203134A0D07
:102D06004B0DF9007908031D892E8A2E932E00306B
:102D1600CB000030CA000030C9000030C800F42ED5
:102D26004808CC004908CD004A08CE004B08CF0021
:102D36001F300310CF0CCE0CCD0CCC0CFF3E031D68
:102D46009C2E4C08F800CA17FF30C805FF30C9058D
:102D5600FF30CA050030CB059630F902F91FB42EB4
:102D6600B52ECD2E7908803A973E0318BB2EBC2E81
:102D7600BD2E8A2E01300310CB0CCA0CC90CC80C10
:102D8600FF3E031DBE2E0130F907031DCB2ECC2EB0
:102D9600BD2EE42E20307902031CD22ED32EDF2E38
:102DA6008A2E0130CC000310C80DC90DCA0DCB0DFB
:102DB600CC0BD62E0130F9027908031DE32EE42E42
:102DC600D42E78080319E82EE92EF42EC809C9096D
:102DD600CA09CB09C80A0319C90A0319CA0A031979
:102DE600CB0A08001930F6008430F7008030F8006E
:102DF6000A168A1133230A168A11A130F600843086
:102E0600F700C030F8000A168A1133230A168A1111
:102E1600E530F3008330F4000A168A113D220A16C3
:102E26008A11F901302F79080A168A1177270A16AE
:102E36008A11A230F3000030F4000A168A113D22EE
:102E46000A168A11F430F3008330F4000A168A1148
:102E56003D220A168A110130F9077B087902031C04
:102E6600352F362F162F003083120313D70000306C
:102E7600D6000030D5000030D4005708031D532F6C
:102E860003305602031D4F2F0D305502031D4F2FE1
:102E960040305402031D4F2F031C522F532F542F23
:102EA600652F013083120313D40700300318013055
:102EB600D507003003180130D6070030031801305B
:102EC600D707402F003083120313D7000030D600F7
:102ED6000030D5000030D4000230EC000A168A110A
:102EE6005A210A168A110800F6000A30F2007608FE
:102EF6000A168A1120210A168A11F7007608303E32
:102F060083160313A2002030A30077080A168A113D
:102F160008230A168A1183160313A4000130F70743
:102F260077080A168A1108230A168A1183160313CC
:102F3600A5000130F7073A30A60077080A168A116D
:102F460008230A168A1183160313A7000130F70710
:102F560077080A168A1108230A168A11831603139C
:102F6600A8000130F7073A30A90077080A168A1137
:102F760008230A168A1183160313AA000130F707DD
:102F860077080A168A1108230A168A11831603136C
:102F9600AB000130F7072030AC0077080A168A111B
:102FA60008230A168A1183160313AD000130F707AA
:102FB60077080A168A1108230A168A11831603133C
:102FC600AE000130F7072030AF0077080A168A11E5
:102FD60008230A168A1183160313B0000130F70777
:102FE60077080A168A1108230A168A11831603130C
:0A2FF600B1000130F707B201080036
:08400000FF3FFF3FFF3FFF3FC0
:02400E00FB3F76
:00000001FF
